:020000040800F2
:10000000200A0020050100080B1E0008E71B00085D
:10001000091E0008B10600087D2500080000000048
:100020000000000000000000000000006D2000083B
:1000300011070008000000006B20000815210008CF
:100040001F0100081F0100081F0100081F01000810
:100050001F0100081F0100081F0100081F01000800
:100060001F0100081F0100081F0100081F010008F0
:100070001F0100081F0100081F0100081F010008E0
:100080001F0100081F0100081F0100081F010008D0
:100090001F0100081F0100081F0100081F010008C0
:1000A0001F0100081F0100081F0100081F010008B0
:1000B0001F0100081F010008792100081F01000826
:1000C0001F0100081F0100081F0100081F01000890
:1000D0001F010008712500081F0100081F0100080A
:1000E0001F0100081F0100081F010008DFF810D0E1
:1000F00000F0CCFA00480047852E0008AFF30080DE
:10010000200A00200648804706480047FEE7FEE731
:10011000FEE7FEE7FEE7FEE7FEE7FEE7FEE7FEE7B7
:1001200077210008ED000008202A04DB203A21FA9C
:1001300002F00021704721FA02F3D040C2F1200200
:100140009140084319467047D2B201E000F8012BF4
:10015000491EFBD270470022F6E710B513460A4647
:1001600004461946FFF7F0FF204610BD30B505469E
:100170002A460B4612F8010B13F8014B08B1A042B6
:10018000F8D01CB1002802D06D1CF1E7284630BD24
:100190002DE9FE4F804681EA0300C00F0C46009017
:1001A00021F0004123F00045B8EB0200A94105D23F
:1001B0004046214690461C460B46024623F000402E
:1001C000104347D0270DC7F30A00C3F30A5102902A
:1001D000401A019040286BDAC3F3130040F4801BEF
:1001E0000098924620B10023D2EB030A63EB0B0B7D
:1001F00001985946C0F14002504600F0B0F9064659
:100200000D4650465946019A00F0B8F910EB080027
:100210006141002487EA115284EAE7731A4340D00F
:10022000009A62B3019A012A4FEA075215DC001BBB
:1002300061EB02014FF0004202EA0752CDE90042B1
:10024000001C41F5801132462B4600F0B8F903B08E
:10025000BDE8F08F40462146F9E7001B61EB020143
:10026000001C41F5801300185B412018A2F500170F
:1002700047EB030140EAD570B6196D4111E06D08F6
:100280004FEA360645EAC0754FEA0752001B61EB9C
:100290000201001C41F5801149084FEA30000019A5
:1002A000514132462B4603B0BDE8F04F00F078B91B
:1002B0000098012240000023D0EB020263EBE073C0
:1002C000009821464FEAE074B8EB000061EB0401AE
:1002D000E9E783F000435BE781F0004158E72DE94F
:1002E000FE4F81EA030404F0004421F00041009431
:1002F0004FF0000B23F0004350EA01045ED052EAB5
:1003000003045BD0C3F30A54C1F30A552C44A4F28E
:10031000F3340194A0FB0254C1F3130141F48011A2
:10032000C3F3130343F4801301FB024400FB034EA9
:10033000840A970A44EA815447EA8357A4FB076872
:1003400002958D0A05FB07854FEA932C04FB0C549C
:100350002705029D4FEA065847EA1637B5EB080510
:100360006EEB070C870E920E47EA811742EA831262
:10037000A7FB0201B6EB0B0164EB00042B0D43EA73
:100380000C335E1844EB1C50DA465146E7FB020181
:10039000C5F313044FEA0B3343EA14534FEA043214
:1003A000019C43EA0603A4F10C040294009CCDE9ED
:1003B00000B400F004F903B0BDE8F08F002001465E
:1003C000F9E72DE9F04D81EA030404F0004B21F038
:1003D000004514464FF0000A23F0004150EA0502A0
:1003E00020D054EA01021DD0C5F30A570246C5F3D6
:1003F0001303C1F31300C1F30A5640F4801543F40C
:100400008013A7EB0608101BD64608F2FD3873EBE5
:10041000050002D308F1010801E092185B41B8F130
:10042000000F03DA00200146BDE8F08D00204FF4F4
:100430008011064684460EE0171B73EB050705D3B3
:10044000121B63EB050306434CEA010C49084FEA13
:10045000300092185B4150EA0107EDD152EA0300E7
:1004600012D082EA040083EA0501084305D0101B7C
:10047000AB4106D20122002306E000224FF00043E8
:1004800002E06FF0010253101AEB06004CEB08512A
:1004900010EB0A0041EB0B01BDE8F04D00F080B815
:1004A00030B5041E71F1000404DB4FF000444042FB
:1004B00064EB0101141E73F1000405DB1C464FF0D0
:1004C0000043524263EB0403994208BF904230BD9F
:1004D00030B50B46014600202022012409E021FA14
:1004E00002F59D4205D303FA02F5491B04FA02F511
:1004F0002844151EA2F10102F1DC30BD2DE9F05FA8
:100500000546002092469B46884606468146402482
:100510001BE02846414647462246FFF705FE534664
:100520005A46C01A914110D311461846224600F08F
:1005300016F82D1A67EB01084F46224601200021CC
:1005400000F00DF817EB00094E41201EA4F1010444
:10055000DFDC484631462A464346BDE8F09F202A64
:1005600004DB203A00FA02F1002070479140C2F10A
:10057000200320FA03F3194390407047202A06DB3A
:10058000CB17203A41FA02F043EAE07306E041FA61
:1005900002F3D040C2F1200291400843194670474F
:1005A00010B5141E73F1000408DA401C41F100017B
:1005B00092185B411A4301D120F0010010BD2DE9D2
:1005C000F04D92469B4611B1B1FA81F202E0B0FAC9
:1005D00080F220329046FFF7C2FF04460F4640EA01
:1005E0000A0041EA0B0153465A46084313D011460C
:1005F00053EA010019D0C8F140025046FFF794FDBC
:1006000005460E46504659464246FFF7A8FF0843A6
:1006100005D0012004E020463946BDE8F08D0020D9
:10062000054346EAE0762C4337430A986305E40A1B
:10063000A0EB08000022FD0A44EA47540A3002D524
:1006400000200146E9E7010510196941DDE9084587
:1006500000196941BDE8F04DA2E7C1F30A52C1F3A8
:10066000130140F2FF3341F480119A4202DA002074
:100670000146704740F233439A42A2F2334202DC11
:100680005242FFF751BDFFF76ABF0000064C074D0D
:1006900006E0E06840F0010394E807009847103452
:1006A000AC42F6D3FFF726FDF02F0008103000080B
:1006B000FEE7000010B50FA11048FFF757FD08B185
:1006C000002010BD0EA10D48FFF750FD08B101201C
:1006D00010BD0CA10948FFF749FD08B1022010BD6B
:1006E00009A10648FFF742FD08B1032010BD6320B1
:1006F00010BD00006F70656E00000000200100203A
:100700006F66660075700000646F776E0000000011
:1007100070470000F8B52E4E0446307880B9207836
:100720002C4D4FF4005180B10122284600F0CBF946
:1007300060784FF4804150B10122284600F0C3F99F
:10074000A078254D012804D01BE00022EDE700220F
:10075000F3E72878012810D1327812B1012A04D0A9
:100760000BE060780090237803E01C48417800910A
:1007700003781B48216A01F003FF0221204600F0A4
:1007800037F8E078012821D1FFF794FF30B1012834
:1007900006D0022807D0032808D00CE0012000E092
:1007A0000020287005E0206A0A3001E0206A0A383B
:1007B000206202F0D7FB206A0A2801D20A202062B8
:1007C0002046BDE8F840032100F012B8F8BD000053
:1007D00018000020001001401B000020DC01002058
:1007E000AC2F000800EB810000238360826170471A
:1007F0000022425408440271704772B6FEE710B5F9
:1008000090F821100022022905D00421816380F88C
:100810002020012010BD01680B6823F00E030B603F
:1008200001680B6823F001030B6090F84030C46B43
:10083000012101FA03F3636080F8211080F8202081
:10084000104610BD10B590F821100024022903D0E5
:100850000421816301243DE001680A6822F00E0250
:100860000A6001680A6822F001020A601A4A0168F7
:10087000914201D1012121E0174A1432914201D164
:1008800010211BE0144A2832914201D1891515E04C
:10089000114A3C32914201D189140FE00E4A503284
:1008A000914202D14FF4803108E00B4A6432914208
:1008B00002D14FF4801101E04FF08071064A083AEE
:1008C0005160012180F82110002180F82010416B37
:1008D00001B18847204610BD080002402DE9F84FBD
:1008E000DFF8B8910024A9F1040B23460F2709F182
:1008F000040AABF1040EC9E00125A5402A40AA4232
:100900007DD1674ED1F804C0ACEB0608B44532D0B7
:1009100014DCBCF1030F3AD009DCBCF1000F2AD083
:10092000BCF1010F1CD0BCF1020F31D11DE0BCF1B4
:10093000110F17D0BCF1120F2AD119E0B8F5881F9A
:1009400019D006DCB8F5803F15D0B8F5801F1FD14F
:1009500011E0B8F5001F0ED0B8F5041F18D10AE059
:10096000CB6815E0CB681B1D12E0CB6808330FE0A5
:10097000CB680C330CE08B682BB1012B4FF00803D4
:1009800003D0456104E0042302E0056100E0002398
:10099000FF2A01D8064601E000F104064FEA84056B
:1009A00001D9A5F12005D6F8008007FA05FC28EA50
:1009B0000C0803FA05F548EA0508C6F800804D68FA
:1009C000ED0062D5374DAE6946F00106AE61AD6906
:1009D00024F0030605F001050095334D06EB050CE8
:1009E000DCF80850A607360F07FA06F825EA0805CE
:1009F000DFF8B880404503D14FF0000817E044E02D
:100A0000DFF8AC80404502D14FF001080FE0DFF87D
:100A1000A480404502D14FF0020808E0DFF898803A
:100A2000404502D14FF0030801E04FF0040808FAF6
:100A300006F848EA0508CCF808804D68D9F8006047
:100A4000ED024D4601D5164300E096432E604D68F9
:100A5000DAF80060AD02554601D5164300E0964332
:100A60002E604D68DBF80060AD035D4601D516438E
:100A700000E096432E604D68DEF80060ED03754699
:100A800001D5164300E096432E60641C0D682A468B
:100A9000E5407FF431AFBDE8F88F00000804014065
:100AA0000000111000100240000001400008014049
:100AB000000C014000100140001401408068084013
:100AC00000D0012070470AB1016170470904FBE7BB
:100AD00001488068704700000800002070B50400DD
:100AE00025D094F83D00002520B984F83C502046DC
:100AF00000F0B8F8242084F83D002068016821F057
:100B0000010101602068016841F400410160206832
:100B1000016821F40041016000F00AFA4D4A616861
:100B2000914201D84C4900E04C49884201D2012051
:100B300070BD4B492368B0FBF1F15E6826F03F06BB
:100B40000E435E606368934206D94FF4967359432F
:100B50004FF47A73B1FBF3F12368491C1E6A26F047
:100B60003F06314319626168914210D84900401E26
:100B7000B0FBF1F2521CC2F30B02042A01D2042092
:100B800022E0B0FBF1F0401CC0F30B001CE0A268B7
:100B9000F2B301EBC10303EB0116431EB3FBF6F303
:100BA0005B1C43F480431B0549D092B301EBC102A7
:100BB00002EB0111401EB0FBF1F0401CC0F30B0032
:100BC00040F4804040F400402168CA694CF6FF734D
:100BD0009A431043C861D4E90710014320680268B2
:100BE00022F0C00211430160D4E9030101432068EF
:100BF000826848F2FF339A4311438160D4E90501CA
:100C000008432168CA6822F0FF021043C86001E06F
:100C10000EE016E02068016841F0010101602564E2
:100C2000202084F83D00256384F83E50002070BDEC
:100C300001EB4106431EB3FBF6F35B1CB3E7012057
:100C4000C2E701EB4101401EB0FBF1F0401CC0F3D4
:100C50000B00B7E7A086010080841E0000093D005C
:100C600040420F0010B586B0002100910191029121
:100C7000039100681349884222D1134CA06940F0C7
:100C80000800A061A069694600F0080004904FF4D4
:100C90004070009012200190032003900B48FFF752
:100CA0001DFE0B48416841F0E06141F002014160E6
:100CB000E06940F40010E061E06900F40010049085
:100CC00006B010BD0054004000100240000C01406E
:100CD0000000014002488168027811448160704739
:100CE00008000020074810B5016841F010010160BC
:100CF000032000F075F80F2000F006F800F024F84B
:100D0000002010BD0020024070B50D4D04464FF488
:100D10007A712878B1FBF0F00A490968B1FBF0F06C
:100D200000F0DCFA48B9102C07D200222146501EF0
:100D300000F036F800206C6070BD012070BD00002E
:100D400008000020140000200C4808B5816941F01B
:100D500001018161816901F001010091C16941F0E6
:100D60008051C161C06900F0805000900448416822
:100D700021F0E06141F00071416008BD00100240C7
:100D800000000140002809DB00F01F020121914012
:100D90004009800000F1E020C0F800117047000019
:100DA000F0B40E4B1B680C46C3F30223C3F10705D6
:100DB000042D00D90425191D072901D2002300E0C4
:100DC000DB1E012606FA05F1491E214099409E408E
:100DD000761E16403143F0BC01F0E2BB0CED00E0A2
:100DE000064900F0070208684FF6FF03184040EA82
:100DF0000220034A10430860704700000CED00E039
:100E00000000FA052DE9F0470F46050061D0434E7A
:100E1000306800F00700B84209D2306820F00700BF
:100E200038433060306800F00700B84251D128687C
:100E30003B4C810712D5400703D5606840F4E06061
:100E400060602878000703D5606840F460506060F7
:100E50006068A96820F0F000084360602878C00747
:100E600028D06868012810D02168022810D089078E
:100E700000292EDA616821F0030101436160FFF768
:100E800027FE804641F288390DE021688903EFE7AB
:100E90008901EDE7FFF71CFEA0EB0801494502D9E7
:100EA0000320BDE8F0876068696800F00C00B0EBD3
:100EB000810FEFD1306800F00700B8420BD93068DD
:100EC00020F0070038433060306800F00700B84277
:100ED00001D00120E5E72878400705D56068E9687A
:100EE00020F4E060084360602878000706D5606859
:100EF000296920F4605040EAC100606000F038F8D1
:100F00006168084AC1F30311515CC8400649086092
:100F100006480068FFF7F8FE0020C2E70020024004
:100F200000100240922F0008140000200C00002046
:100F30000448054900684968044AC1F30221515C2C
:100F4000C84070471400002000100240A22F000883
:100F50000448054900684968044AC1F3C221515C4C
:100F6000C84070471400002000100240A22F000863
:100F70000E4A51680E4801F00C03042B11D0082BC7
:100F80000FD10C48C1F38343C903C05C0AD5516833
:100F9000084AC1F34041921E515C054A5043B0FBE0
:100FA000F1F07047044948437047000000100240C8
:100FB00000127A00822F000800093D002DE9F84F49
:100FC000040070D02078C04DC00749D06868C0F3D5
:100FD0008100012807D06868C0F38100022809D188
:100FE0006868C00306D52868800339D56068002882
:100FF000E7D035E06068B0F5803F0BD010B1B0F5B8
:10100000A02F11D0286820F480302860286820F4B0
:10101000802002E0286840F480302860606890B149
:10102000FFF756FD06460AE0286840F48020286055
:10103000F0E700BFFFF74CFD801B642873D82868D9
:101040008003F7D50CE0FFF743FD064605E000BF3F
:10105000FFF73EFD801B6428F0D828688003F7D492
:1010600020789A4E80074FF001094FF0000839D5DB
:10107000686810F00C0F07D06868C0F38100022880
:1010800009D16868C00306D42868800714D5206990
:10109000012808D110E02069B0B1C6F80090FFF730
:1010A00017FD074605E00AE1FFF712FDC01B022805
:1010B000C4D828688007F7D52868616920F0F8004F
:1010C00040EAC10028600DE0C6F80080FFF700FD8F
:1010D000074604E0FFF7FCFCC01B022823D8286861
:1010E0008007F7D4207800072CD57948A169D9B1B9
:1010F000C0F80090FFF7ECFC074604E0FFF7E8FCBF
:10110000C01B02280FD8686A8007F7D571484FF4D2
:10111000FA510068B0FBF1F0009000BF0098411E4A
:101120000091FAD20EE080E0C0F80080FFF7D0FC1A
:10113000074604E0FFF7CCFCC01B022875D8686A9C
:101140008007F7D42078400760D5E8690027C00001
:1011500008D4E86940F08050E861E869012700F0B0
:10116000805000905C480168C90513D4016883462B
:1011700041F480710160FFF7ABFC824606E000BFDE
:10118000FFF7A6FCA0EB0A0064284ED8DBF80000AD
:10119000C005F5D5E06801280AD008B1052813D0AC
:1011A000286A20F001002862286A20F0040002E08A
:1011B000286A40F001002862E06841F2883B98B15B
:1011C000FFF786FC82460BE0286A40F004002862A4
:1011D000EEE700BFFFF77CFCA0EB0A0159455AD8A7
:1011E000286A8007F6D50CE0FFF772FC824605E01E
:1011F000FFF76EFCA0EB0A0159454CD8286A80071E
:10120000F6D41FB1E86920F08050E861E06988B346
:101210006968C1F38101022944D00228C6F86080C0
:1012200004D0FFF755FC044638E034E0FFF750FCEB
:10123000074604E0FFF74CFCC01B02282BD82868A7
:101240008001F7D4206AB0F5803F05D16868A168B5
:1012500020F4003008436860D4E908010843696855
:1012600021F4741108436860C6F86090FFF730FC01
:10127000044606E025E000BFFFF72AFC001B022819
:1012800009D828688001F7D51BE000BFFFF720FCD4
:10129000001B022802D90320BDE8F88F28688001CE
:1012A000F4D40EE00128F7D06868226A00F4803197
:1012B000914204D1616A00F47010884201D001208B
:1012C000EAE70020E8E70000001002400000424288
:1012D00080044242140000200070004010B5401EFF
:1012E000B0F1807F01D3012010BD4FF0E024606198
:1012F0000F21601701F054F90020A0610720206140
:10130000002010BD7047704770B590F83C20012A4E
:1013100026D0012480F83C40022280F83D2003685A
:101320005A689D6822F070060A6832435A600D4B75
:1013300002689A4208D0B2F1804F05D00A4B9A4217
:1013400002D00A4B9A4204D1496825F08003194320
:10135000916080F83D40002180F83C10084670BD47
:10136000022070BD002C0140000400400008004035
:1013700010B5040003D094F83D0010B107E001203F
:1013800010BD002084F83C00204600F01FF8022029
:1013900084F83D00211D206800F0F4FE012084F84F
:1013A000460084F83E0084F83F0084F8400084F84A
:1013B000410084F8420084F8430084F8440084F833
:1013C000450084F83D00002010BD000008B500680D
:1013D0000B49884212D10B48C16941F00401C16137
:1013E000C069002200F00400009001211E20FFF7D8
:1013F000D7FCBDE808401E20FFF7C4BC08BD0000B4
:10140000000800400010024090F83D10012901D072
:1014100001207047022180F83D100168CA6842F03F
:101420000102CA6000680B49884208D0B0F1804FC1
:1014300005D00949884202D00849884204D1816810
:1014400001F00701062903D0016841F001010160A4
:1014500000207047002C01400004004000080040BC
:1014600070B5044690F83C000025012817D00126ED
:1014700084F83C60022084F83D002068826822F0F5
:10148000770222F47F4282600868502838D00DDC51
:1014900020284FD005DC90B3102811D14AE002205B
:1014A00070BD302846D040280AD13BE060282FD0BC
:1014B00070280DD0B0F5805F03D0B0F5005F12D07A
:1014C000012584F83D60002084F83C00284670BD6A
:1014D000CB68D1E90121206800F0A7FE206881686F
:1014E00041F0770109E0CB68D1E90121206800F0E3
:1014F0009CFE2068816841F480418160E1E719E049
:10150000CA684968206800F0C1FE5021206806E0E2
:10151000CA684968206800F0CAFE6021206800F0AF
:101520008EFECEE7CA684968206800F0AFFE402111
:101530002068F4E7226801461046F0E770472DE97D
:10154000F04104460068C66805694FF00007A90726
:1015500013D5B10711D5F91E01610120207720684C
:1015600080698007204602D0FFF7E8FF04E000F022
:101570007EF8204600F07CF82777680716D57007BC
:1015800014D521686FF004000861022020772068DC
:10159000806910F4407F204602D0FFF7CFFF04E0BF
:1015A00000F065F8204600F063F82777280715D586
:1015B000300713D521686FF00800086104202077F8
:1015C0002068C0698007204602D0FFF7B7FF04E01B
:1015D00000F04DF8204600F04BF82777E80616D5C6
:1015E000F00614D521686FF01000086108202077FC
:1015F0002068C06910F4407F204602D0FFF79EFFAC
:1016000004E000F034F8204600F032F82777E807CD
:1016100008D0F00706D021686FF00100086120466D
:1016200000F028F8280608D5300606D521686FF0A6
:10163000800008612046FFF765FE680608D5700641
:1016400006D521686FF040000861204600F028F8B8
:10165000A8060AD5B00608D521686FF020000861F9
:101660002046BDE8F041FFF74EBEBDE8F08170476F
:101670007047000010B500680649884209D100F0A3
:10168000E7FD054800F0BAFDBDE81040034800F052
:10169000E5BD10BD00080040F8010020DC0100207D
:1016A0007047704738B5416C044625A000F068FFCC
:1016B000206801680168C943C90703D141686FF018
:1016C0000101016020680168C943890703D44168AA
:1016D0006FF00201016020680168C943490703D423
:1016E00041686FF004010160206801686FF008052F
:1016F000C943090701D4C1680560204600F038F8E5
:10170000000701D520684068606C000703D5206899
:1017100001684068009020680168C943090706D441
:1017200005601249012201F1C80000F0CBF92068E0
:101730000168C943890602D46FF02001016038BDF9
:101740005B6D61696E5D6572726F723A2055617290
:1017500074204572726F722C204572726F72436FE3
:101760006465203D2025750D0A0D0A00BC0000208F
:10177000406C7047F8B5016804460868CA684B6950
:1017800010F00F0F4FF0000559D003F0010602F4DE
:101790009077374365D0C10705D0D10503D5616C7B
:1017A00041F001016164410705D5D90703D0616C9F
:1017B00041F002016164810705D5D90703D0616C4E
:1017C00041F004016164010707D502F020013143B3
:1017D00003D0616C41F008016164616C00293AD06A
:1017E000800604D5900602D5204600F0AFFD2068A3
:1017F0004069616CC0F38010090700D460B32046D3
:1018000000F07DFD20684069400621D52068143035
:1018100050E8001F21F0400140E80012002AF5D1F5
:10182000E06BA8B16D494163E06BFFF70BF800284E
:1018300011D0E06B416B01B0BDE8F0400847830672
:101840000FD593060DD52046BDE8F84000F07EBDCB
:101850002046FFF727FFF8BD2046FFF723FF65640A
:10186000F8BD266B2023012E7CD1C6067AD5D6067C
:1018700078D508684868009048694FF0020640062D
:1018800040D5E16B086840680004000CE8D0A28DE8
:101890008242E5D9E085886920282DD020680C3067
:1018A00050E8001F21F4807140E80012002AF5D1B1
:1018B0002068143050E8001F21F0010140E80012B8
:1018C000002AF5D12068143050E8001F21F04001B3
:1018D00040E80012002AF5D184F8423025632068E0
:1018E0000C3050E8001F21F0100140E80012002ADF
:1018F000F5D1E06BFEF783FF6663A08DE18D401AA2
:1019000081B22AE0A08DE18D401A81B2E08D0028DD
:10191000A6D00029A4D022680C3252E8000F20F48F
:10192000907042E80007002FF5D12068143050E88D
:10193000002F22F0010240E80027002FF5D184F8A3
:101940004230256320680C3050E8002F22F010024E
:1019500040E80023002BF5D166632046FFF7A1FE87
:10196000F8BDFFE705062BD5150629D594F84100EB
:101970002128F5D1A068B0F5805F01D12069B0B110
:10198000206A411C2162216800784860E08C401E7A
:101990000004000CE084E3D12068C16821F08001DC
:1019A000C1602068C16841F04001C160D8E7206A89
:1019B0000088C0F308004860206A801C2062E5E7C8
:1019C0004006CDD55006CBD5CA68204622F040024D
:1019D000CA6084F8413000F005F9C1E7EF22000841
:1019E00070B5040004D094F84100002510B106E061
:1019F000012070BD84F84050204600F023F82420D8
:101A000084F841002068C16821F40051C16020467B
:101A100000F0FEFC2068016921F49041016120681A
:101A2000416921F02A0141612068C16841F40051F7
:101A3000C1606564202084F8410084F84200656339
:101A4000002070BD30B585B000240094019402944C
:101A500003940068184988422CD11848816941F4E0
:101A600080418161816901F480410491816941F083
:101A7000040181618069124D00F0040004904FF46C
:101A800000700090022001900320039069462846D0
:101A9000FEF724FF2815CDE9000469462846029484
:101AA000FEF71CFF002202212520FFF779F92520EF
:101AB000FFF768F905B030BD003801400010024062
:101AC0000008014090F84230202B01D002207047DE
:101AD00021B11AB10023036300F0F6BC0120704766
:101AE00070B500681449884225D10025134C202682
:101AF00012490122C8391148FFF7E4FF20B184F8E8
:101B0000426084F84050F3E70D4A01200B4B1070FF
:101B10000021C83B506803F164055C5CA4F1210618
:101B2000592E04D8632800D300202C54401C491C93
:101B30006429F2DB506070BD003801408401002050
:101B4000000000202DE9F843044690F84100984633
:101B500016460D46202802D00220BDE8F88385B144
:101B60007EB100206064212084F84100FEF7B0FFC0
:101B7000A6848146E684A0682027B0F5805F02D065
:101B800003E00120E9E7206910B12E4600250EE0B0
:101B900000260CE08021204600F0B1FCA8B9C6B1B7
:101BA00016F8010B21684860E08C401EE084E08C50
:101BB0004B464FF00002CDF800800028EAD14FF0EC
:101BC0004001204600F09BFC40B184F841700320A6
:101BD000C3E735F8020BC0F30800E3E784F841706F
:101BE0000020BAE77047FEE70B480C490022037853
:101BF000012B01D14B7002704378012B04D10B787B
:101C00003BB100230B7042708178012900D18270B2
:101C100070470123F6E70000CC01002018000020E7
:101C200005480021054A818082604FF4004282818C
:101C30004170017081707047CC010020001001409C
:101C400010B5044681898068FEF738FF0F49887017
:101C5000012150B10020A070A288A2F5FA73B3F55B
:101C6000FA7F0BD8617020700EE0A088401C80B213
:101C7000A080B0F57A7F00D3A17010BD323AB2F5E2
:101C8000E17F01D821706070A08010BD1800002095
:101C900070B586B000252048009501950295039502
:101CA000816941F010018161816901F010010491A5
:101CB000816941F020018161816901F02001049175
:101CC000816941F004018161816901F0040104919D
:101CD000816941F0080181618069104E00F00800BF
:101CE0004FF4C0440490012221463046FEF7EBFE3B
:101CF000009401240320CDE9024069460194304656
:101D0000FEF7ECFDE003CDE900056946029430469C
:101D1000FEF7E4FD06B070BD001002400010014067
:101D20000D4810B50B4901600C49416000214FF48A
:101D300080428160C0E9031241618161C161016239
:101D4000FEF7CCFE002803D0BDE81040FEF755BDDD
:101D500010BD00000054004020000020801A060042
:101D600010B586B00024174800940194029403949F
:101D700004941349059401604721C0E9011440F21D
:101D8000E731C0E9031480218161FFF7F1FA08B15E
:101D9000FEF733FD4FF48050009069460948FFF785
:101DA0005FFB08B1FEF729FD049404A905480594DA
:101DB000FFF7AAFA002801D0FEF71FFD06B010BDFC
:101DC00000080040740000200E4810B50C49016066
:101DD0004FF4E1314160002181600C22C160C0E913
:101DE00004128161C161FFF7FBFD08B1FEF705FD3B
:101DF00004490122BDE81040C8390248FFF762BE1D
:101E00000038014084010020FEE7FEE710B5002104
:101E1000074C0A46002004EBC1131A54401CC0B200
:101E20008028FAD3491CC9B20829F3D310BD000099
:101E30002002002010B586B000214FF47A720020F5
:101E4000401C9042FCD3491C9142F8D3124881694E
:101E500041F0080181618069104C00F00800049095
:101E60004FF4007000901120019002200390012097
:101E7000029069462046FEF731FDA01500906946A4
:101E80002046FEF72BFD012000F0B6F8012000F0FF
:101E9000BBF806B010BD000000100240000C01406D
:101EA00070B500240646802525FA04F0304000D0A5
:101EB000012000F0A9F8012000F09EF8002000F0B9
:101EC0009BF8641CE4B2082CEED3012000F094F8D7
:101ED000BDE87040002000F08FB810B5012000F080
:101EE00093F8012000F088F8002000F08DF8BDE89C
:101EF0001040002000F080B810B5002000F084F8F9
:101F0000012000F079F8BDE81040012000F07CB815
:101F100010B5FFF78FFFAE2000F07EF8D52000F05F
:101F20007BF8802000F078F8A82000F075F83F20BA
:101F300000F072F8D32000F06FF8002000F06CF889
:101F4000402000F069F8A12000F066F8C82000F0F9
:101F500063F8DA2000F060F8122000F05DF88120CC
:101F600000F05AF8CF2000F057F8D92000F054F8CC
:101F7000F12000F051F8DB2000F04EF8302000F0A6
:101F80004BF8A42000F048F8A62000F045F88D207A
:101F900000F042F8142000F03FF8AF2000F03CF8C9
:101FA000FFF734FFBDE8104000F012B810B5891CEF
:101FB000CCB240F0B00000F02FF8102040EA14102E
:101FC00000F02AF804F00F00BDE8104000F024B83B
:101FD00070B5084D002400212046FFF7E7FF05EB10
:101FE000C410802100F029F8641CE4B2082CF2D35C
:101FF00070BD00002002002002464FF480710148AD
:10200000FEF761BD000C014002464FF4007101482B
:10201000FEF759BD000C014010B50446FFF75DFF07
:102020007820FFF73DFF0020FFF73AFF2046FFF73B
:1020300037FFBDE81040FFF75FBF70B50D4606469D
:10204000FFF74BFF7820FFF72BFF4020FFF728FF1B
:10205000002404E0305DFFF723FF641CE4B2AC42CF
:10206000F8D3BDE87040FFF747BF704770470000E6
:102070002DE9F04705462348007801283FD1DFF8D5
:102080008880DFF88890224F0024285D78B105EB26
:1020900044060122F18A3846FEF715FD2819007D15
:1020A00041281CD042281ED0432820D024E02819E3
:1020B000007D412804D0422807D043280AD01BE0E5
:1020C00005EB44000022C18A0BE005EB440000222E
:1020D000C18A0AE005EB44000022C18A09E0F18AC6
:1020E0000122404606E0F18A0122484602E0F18AD8
:1020F00001223846FEF7E7FC641C022CC5DBBDE874
:10210000F08700001800002000080140000C01408A
:1021100000100140FEF7DEBD30B58FB028216846C3
:10212000FEF719F814210AA8FEF715F80121080492
:10213000CDE900100024029402250491CDE9075056
:102140004FF4E01009906846FEF738FF08B172B608
:10215000FEE70F20CDE90A054FF48060CDE90C4081
:1021600002210AA80E94FEF74DFE002801D072B697
:10217000FEE70FB030BD70470148FFF7E0B900003F
:1021800074000020F0B50268194B1A4C1A4D4FF03C
:102190008047984205D0B84203D0A04201D0A8425F
:1021A00003D122F070064A683243984205D0B84203
:1021B00003D0A04201D0A84203D122F44074CA68DF
:1021C00022434C6922F08002224302608A68C26284
:1021D0000A688262984201D1096901630121416163
:1021E0000169C90703D0016921F001010161F0BD56
:1021F000002C01400004004000080040F0B5002120
:102200000E46012445182A795AB900EB81029769D4
:102210009368BB4202D25B1C936002E02C71445471
:102220009660491C0429EDDBF0BD10B5846842EAD4
:10223000032224F47F440A432243826010BD826853
:1022400022F070020A4342F00701816070470000EB
:102250000148FFF7F5BC0000CC01002030B500219B
:102260004FEA010400EB8102D5685368AB4202D209
:102270005B1C536004E0435C33B10023435454605F
:10228000491C0229EEDB30BD0123F7E710B5036AD4
:10229000046A24F001040462846924F0F00444EA2E
:1022A000021423F00A020A438461026210BD10B5D1
:1022B000036A046A24F010040462846923F0A00312
:1022C00024F4704444EA023243EA0111826101625B
:1022D00010BD70B500EB81040025049E6560455477
:1022E000E260421800EB41001375C68270BD10B564
:1022F000406A0021C185C184FFF7D4F910BD01688F
:102300000C3151E8002F22F4907241E80023002B99
:10231000F5D10168143151E8002F22F0010241E8A3
:102320000023002BF5D1016B012909D101680C3183
:1023300051E8002F22F0100241E80023002BF5D1D4
:10234000202180F8421000210163704708B590F801
:102350004210222901D0022008BD82684FF4805328
:102360009A4201D1016921B1816A9A421BD04AB1D6
:102370000AE00268816A5268C2F308020A80816A30
:10238000891C08E0026972B10268526802F07F029B
:102390000A70816A491C8162C18D491E0904090CB9
:1023A000C18503D01BE002685268F1E70168CA6882
:1023B00022F02002CA600168CA6822F48072CA60F2
:1023C00001684A6922F001024A61202180F8421026
:1023D00000214163026B012A03D0FFF781FB00203B
:1023E00008BD016301680C3151E8002F22F0100292
:1023F00041E80023002BF5D101680A68D20602D516
:102400000A6849680091818DFFF74BF9E7E7000002
:1024100070B5044600680169E26821F44051114337
:1024200001612169A0680843616908432168CA689D
:1024300041F20C639A430243CA6020684169A26971
:1024400021F44071114341611E492068884202D144
:10245000FEF77EFD01E0FEF76BFD00EBC00101EB36
:102460000012606864218000B2FBF0F3B3FBF1F36B
:102470006FF018067343B2FBF0F5B2FBF0F605EB14
:102480008305322303EB0515B5FBF1F5B6FBF1F639
:1024900005F0F00505EB0615B2FBF0F6B2FBF0F027
:1024A000B0FBF1F06FF01802504306EB800003EB35
:1024B0000010B0FBF1F0216800F00F0028448860A4
:1024C00070BD00000038014081628285C285002114
:1024D0004164222180F84210016921B10168CA6873
:1024E00042F48072CA6001684A6942F001024A619E
:1024F0000068C16841F02001C160002070472DE9EB
:10250000F843984617460D460446089E24E0701C82
:1025100022D0FEF7DDFAA0EB0800B0421AD8CEB107
:102520002068C168490717D5802D15D0402D13D0DC
:102530000168C94309070FD401680025406800906D
:102540002046FFF7DCFE0820606484F8405001203C
:10255000BDE8F8830320FBE72068006835EA000047
:1025600004D00020B842D2D00020F1E70120F9E7E2
:102570000148FFF7FFB8000084010020FEE70000DB
:102580000FB4054B10B503A9044A029800F0EAF80D
:1025900010BC5DF814FB00006D2E00081C0000202C
:1025A0000907090E002804DB00F1E02080F8001480
:1025B000704700F00F0000F1E02080F8141D704714
:1025C00002E008C8121F08C1002AFAD170477047FC
:1025D000002001E001C1121F002AFBD1704700005A
:1025E0002DE9FF5F82B00021DDE90430020DDDF846
:1025F00040B0034318D044F61050A2F2FF324243D9
:102600001514119801281FD0A5EB0B00401C5FEAA0
:10261000000A4FF000064E4FDFF83891B0465046A2
:1026200015D5CAF1000413E0119801244AA301282A
:1026300001D16FEA0B010298119AC0E90031C0E99B
:10264000024206B0BDE8F09FCBF10000DFE7044690
:102650000021404A491842EB0450CDE9001012E035
:10266000E00707D032463B4640464946FDF737FE75
:102670008046894632463B4610461946FDF72FFEF6
:1026800006460F466410002CEAD1DDE90401DDE9BD
:102690000023BAF1000F06DAFDF721FE42464B4651
:1026A000FDF71DFE05E0FDF78CFE42464B46FDF7AB
:1026B00088FE04460E460022284BFDF7F1FE03D8A3
:1026C0004FF0FF30014607E00022254B20463146FF
:1026D000FDF75EFDFDF7C1FF102409E0002C0ADBC9
:1026E0000A220023FDF70AFF039B30321A55641EAD
:1026F00050EA0102F2D1641C039AC4F1110314449C
:10270000119A012A03D0012208430DD10AE008439F
:1027100004D000204FF0110B119072E7A3EB0B05D2
:102720006D1E0DE05B4504DD4FF0000205F1010573
:1027300004E003DA4FF00002A5F10105002AECD015
:1027400002981199C0E90231C0E9004579E700001B
:10275000000014400000F03F300000000000F04393
:102760000000E03F2DE9FF4F95B09A4688460646A7
:102770000025EEE1252877D100242746F94A0121DA
:10278000039400E0044316F8013F203B01FA03F0F4
:102790001042F7D130782A2811D06FF02F0330780B
:1027A000A0F13002092A16D8039A44F0020402EB81
:1027B000820203EB42021044761C0390EFE758F8C4
:1027C000042B0392002A03DA504244F4005403908D
:1027D00044F00204761C30782E2816D116F8010F2A
:1027E00044F004042A280DD06FF02F023078A0F1B5
:1027F0003003092B09D807EB870302EB4303C71803
:10280000761CF3E758F8047B761C30786C280FD0E0
:1028100006DC4C2817D068280DD06A2814D104E0B3
:10282000742810D07A280FD10DE044F400140AE087
:1028300044F4801401E044F440147278824202D1DE
:1028400004F58014761C761C307866280BD013DCD7
:10285000582877D009DC002875D04528F6D04628BE
:10286000F4D047281AD193E118E0632835D06428C2
:1028700079D0652812D18BE1702873D008DC6728E5
:10288000F1D069286FD06E280DD06F2806D1ACE04A
:1028900073282CD0752874D0782853D052461799B5
:1028A00090476D1C54E1C4F30250022809D003285C
:1028B0000DD0D8F8001004280DD00D6008F10408E0
:1028C00046E1D8F80010EA17C1E90052F6E7D8F857
:1028D00000100D80F2E70D70F0E718F8041B8DF87A
:1028E000001000208DF80100EB46012003E058F8AD
:1028F00004BB4FF0FF3061074FF0000102D40DE040
:1029000009F101018946B9420FDA8145F8DB1BF86C
:1029100009100029F4D108E009F10101894681423A
:10292000FADB1BF809100029F6D103985346A0EBF7
:10293000090721463846179A00F080FA284400EB30
:10294000090507E044E008E10DE01BF8010B5246E1
:1029500017999047B9F10109F7D2534621463846F5
:10296000179AF2E039E00A21C4F302524FF0000B4B
:102970000091022A06D058F8040BC117032A09D087
:102980000AE023E008F1070020F00702F2E8020164
:10299000904605E000B2C117042A01D140B2C11728
:1029A000002906DA0A460021404261EB02012D228D
:1029B00002E0220504D52B228DF80420012203E039
:1029C000E20701D02022F7E7914657E00A2100E014
:1029D00010214FF0000B00910BE010214FF0000B85
:1029E00044F004040827009103E008204FF0000B96
:1029F0000090C4F30252022A05D058F8040B0021BB
:102A0000032A08D008E008F1070020F00702F2E8E6
:102A10000201904603E080B2042A00D1C0B24FF018
:102A2000000922072AD53278702A07D0DDF800C0C5
:102A30008CF0100C5CEA0B0C05D00EE040228DF8F7
:102A40000420012208E050EA010306D030238DF86B
:102A500004308DF8052002229146009B83F0080384
:102A600053EA0B030AD150EA010201D1620705D5EE
:102A700030228DF804204FF001097F1E3278582A49
:102A800004D039A20C920CAA02920BE03BA2F9E707
:102A90005B46009AFDF732FD0C9B9B5C029A521E2E
:102AA0000292137050EA0102F2D1029804A9081AA6
:102AB00000F1200B600702D524F4803400E00127E8
:102AC0005F4502DDA7EB0B0000E0002000EB0B01EF
:102AD000009003984944401A0390E00306D45346FB
:102AE0002146179A039800F0A9F90544002706E04B
:102AF00001A85246C05D179990476D1C7F1C4F4539
:102B0000F6DBE0030CD553462146179A039800F0F4
:102B100095F9054404E030205246179990476D1C02
:102B20000099481E00900029F5DC08E002980299FF
:102B300052460078491C0291179990476D1CBBF1D1
:102B40000001ABF1010BF1DC5BE100F065F905443C
:102B5000761C307800287FF40DAE19B02846BDE809
:102B6000F08F000009280100303132333435363718
:102B700038396162636465660000000030313233C9
:102B80003435363738394142434445460000000069
:102B9000600700D4062708F1070020F00700F0E8DE
:102BA0000223804603F0004C5FEA0C0001D097A09E
:102BB00009E0200501D596A005E0E00701D095A029
:102BC00001E0AFF24C001390307823F00043652809
:102BD0000CD006DC452809D046281DD047287FD1D7
:102BE0003BE0662818D067287AD136E00021112F03
:102BF00001DB112000E0781CCDE9000104A90CA83C
:102C0000FFF7EEFCDDE90D010C9A4FF0000B07F128
:102C10000109109200914EE04FF000400097CDE97D
:102C2000011004A90CA8FFF7DBFCDDE90D020C9BE9
:102C30000F994FF0000B91461093009211B9791C37
:102C400000EB0109B7EB090003D4C0F1FF3B07F12A
:102C50000109A9EB0700019042E0012F00DA0127EA
:102C60000021112F01DD112000E03846CDE90001DF
:102C700004A90CA8FFF7B4FCDDE90D010C9A009142
:102C80004FF0000BB946109221070FD4009A4A4525
:102C900003DA914601E0A9F10109B9F1010F05DD5F
:102CA000109AA9F10101515C3029F4D0B84202DA3E
:102CB00010F1040F03DA0121CDE9011010E0002822
:102CC00003DC8344A9EB000102E0411C494500DD1F
:102CD0008946A0EB0B00401C01904FF00040029091
:102CE000200705D40198484502DB4FF0FF300190E2
:102CF00000208DF84B0002980DF14B07B0F1004F0A
:102D000025D002200C902B200D90029800280CDA80
:102D1000404202902D200D9007E00A210298FDF715
:102D2000D7FB3031029007F8011D0C99481E0C901A
:102D30000029F2DC02980028EFD1791E0D98087066
:102D4000307800F0200040F0450007F8020D11A88F
:102D5000C01BC01D02901398007800B1012000EB49
:102D60000901019801EBE071029801440398401AAF
:102D7000401E0390E00306D453462146179A039859
:102D800000F05CF805441398007818B15246179982
:102D900090476D1CE00323D553462146179A0398AC
:102DA00000F04CF805441BE0BBF1000F07DB009876
:102DB000584504DD1098179910F80B0001E0179999
:102DC00030205246904701980BF1010B401E05F14F
:102DD0000105019004D12E205246179990476D1C91
:102DE000B9F10001A9F10109DEDC05E017F8010BDA
:102DF0005246179990476D1C0299481E029000296F
:102E0000F4DC53462146179A03989EE62D000000F5
:102E10002B000000200000002DE9F04104460025B1
:102E20001E461746880404D405E039462020B047E2
:102E30006D1C641EF9D52846BDE8F0812DE9F041EE
:102E4000044600251E469046C80301D5302700E001
:102E50002027880404D505E041463846B0476D1C5C
:102E6000641EF9D52846BDE8F081000013B54FF483
:102E70007A73012269460248FEF764FE00981CBD81
:102E80008401002008B5FDF72DFFFFF745F9FEF797
:102E9000FFFEFEF765FFFEF797FFFEF741FFFEF727
:102EA000BFFEFFF735F8FEF7B1FF4FF4005000907A
:102EB00043234FF47A7200212648FFF70AFA4FF4B1
:102EC0008040009043234FF4FA7201212148FFF71C
:102ED00000FA4FF47A6200211F48FDF783FC4FF49B
:102EE000FA6201211C48FDF77DFC642202211A4888
:102EF000FDF778FC322203211748FDF773FC1748D1
:102F0000FEF782FA00211448FDF772FC01211248F5
:102F1000FDF76EFC02211048FDF76AFC03210E4804
:102F2000FDF766FC00250E4CFEF75EFE0A48FDF735
:102F3000F1FB0848FFF79CF820780128F4D1012123
:102F40000548FDF755FC00210348FDF751FC2570AD
:102F5000EAE70000DC010020F801002074000020F6
:102F60001900002010B564210348FDF7F4F8034967
:102F70000020486010BD000020010020000000205B
:102F8000010202030405060708090A0B0C0D0E0FC7
:102F900010100000000000000000010203040607FA
:102FA0000809000000000102030400005B6D616974
:102FB0006E5D696E666F3A20696E666F73706565E7
:102FC000643D2564202020206D6F64655F666C6120
:102FD000673D2564202020206C65643A256420200C
:102FE000202062757A7A65723A25640D0A00000025
:102FF000103000080000002020000000C02500085C
:103000003030000820000020000A0000D025000811
:10301000000000000000000001000000100000009F
:103020000000000000127A00000000010000000013
:04000005080000ED02
:00000001FF
