:020000040800F2
:10000000C006002005010008AB130008C512000857
:10001000A91300086D030008D716000800000000AF
:10002000000000000000000000000000F9140008BB
:100030006F03000800000000AD130008FB14000867
:100040001F0100081F0100081F0100081F01000810
:100050001F0100081F0100081F0100081F01000800
:100060001F0100081F0100081F0100081F010008F0
:100070001F0100081F0100081F0100081F010008E0
:100080001F0100081F0100081F0100081F010008D0
:100090001F0100081F0100081F0100081F010008C0
:1000A0001F0100081F0100081F0100081F010008B0
:1000B0001F0100081F0100081F0100081F010008A0
:1000C0001F0100081F0100081F0100081F01000890
:1000D0001F0100081F0100081F0100081F01000880
:1000E0001F0100081F0100081F010008DFF810D0E1
:1000F00000F07AF800480047A91B0008AFF3008021
:10010000C00600200648804706480047FEE7FEE795
:10011000FEE7FEE7FEE7FEE7FEE7FEE7FEE7FEE7B7
:100120005D150008ED000008202A04DB203A21FAC2
:1001300002F00021704721FA02F3D040C2F1200200
:100140009140084319467047D2B201E000F8012BF4
:10015000491EFBD270470022F6E710B513460A4647
:1001600004461946FFF7F0FF204610BD30B504469F
:100170000020034600E05B1C934203D2E05CCD5CB0
:10018000401BF8D030BD2DE9F05F054600209246B7
:100190009B4688460646814640241BE02846414649
:1001A00047462246FFF7C0FF53465A46C01A9141C0
:1001B00010D311461846224600F028F82D1A67EB96
:1001C00001084F4622460120002100F01FF817EBDE
:1001D00000094E41201EA4F10104DFDC48463146EF
:1001E0002A464346BDE8F09F064C074D06E0E0680E
:1001F00040F0010394E8070098471034AC42F6D36E
:10020000FFF778FF901D0008B01D0008202A04DBCE
:10021000203A00FA02F1002070479140C2F1200319
:1002200020FA03F319439040704700007CB511A0F9
:10023000114C0068009000221021204600F08AF93D
:100240004FF47A752B46012269460C4800F0C0FD38
:100250002B46012201A9094800F010FD01221021BE
:10026000204600F077F99DF80400C00700D0022076
:100270007CBD000005000000000801401C020020B9
:1002800038B50CA00C4C00680090002210212046CC
:1002900000F060F94FF47A7302226946074800F0D3
:1002A00097FD01221021204600F054F9BDE83840A6
:1002B000FFF7BCBF66990000000801401C02002047
:1002C000F8B5054603208DF80000080C8DF80100F4
:1002D000080A8DF80200104F14468DF80310002212
:1002E0001021384600F036F94FF47A76334604226E
:1002F00069460A4800F06CFDA2B233462946074819
:1003000000F0BCFC08B10120F8BD012210213846E4
:1003100000F020F90020F8BD000801401C02002078
:10032000F8B504460EA00F4D006800900022102181
:10033000284600F00FF94FF47A76334604226946D6
:10034000094800F045FD334602222146064800F0E8
:1003500095FC01221021284600F0FCF8F8BD0000B1
:1003600090000000000801401C020020FEE77047DA
:1003700072B6FEE72DE9F84FDFF8B8910024A9F135
:10038000040B23460F2709F1040AABF1040EC9E060
:100390000125A5402A40AA427DD1674ED1F804C06C
:1003A000ACEB0608B44532D014DCBCF1030F3AD0F4
:1003B00009DCBCF1000F2AD0BCF1010F1CD0BCF14C
:1003C000020F31D11DE0BCF1110F17D0BCF1120F9B
:1003D0002AD119E0B8F5881F19D006DCB8F5803F9E
:1003E00015D0B8F5801F1FD111E0B8F5001F0ED051
:1003F000B8F5041F18D10AE0CB6815E0CB681B1DC7
:1004000012E0CB6808330FE0CB680C330CE08B684C
:100410002BB1012B4FF0080303D0456104E0042306
:1004200002E0056100E00023FF2A01D8064601E052
:1004300000F104064FEA840501D9A5F12005D6F89C
:10044000008007FA05FC28EA0C0803FA05F548EADB
:100450000508C6F800804D68ED0062D5374DAE69DD
:1004600046F00106AE61AD6924F0030605F0010512
:100470000095334D06EB050CDCF80850A607360F47
:1004800007FA06F825EA0805DFF8B880404503D1E9
:100490004FF0000817E044E0DFF8AC80404502D19F
:1004A0004FF001080FE0DFF8A480404502D14FF083
:1004B000020808E0DFF89880404502D14FF00308B9
:1004C00001E04FF0040808FA06F848EA0508CCF8FD
:1004D00008804D68D9F80060ED024D4601D51643FD
:1004E00000E096432E604D68DAF80060AD02554694
:1004F00001D5164300E096432E604D68DBF800609E
:10050000AD035D4601D5164300E096432E604D686D
:10051000DEF80060ED03754601D5164300E0964312
:100520002E60641C0D682A46E5407FF431AFBDE8BB
:10053000F88F000008040140000011100010024074
:100540000000014000080140000C01400010014083
:10055000001401400AB1016170470904FBE7000083
:100560000148806870470000080000200248816848
:10057000027811448160704708000020074810B5D8
:10058000016841F010010160032000F067F80F20BE
:1005900000F006F800F024F8002010BD0020024012
:1005A00070B50D4D04464FF47A712878B1FBF0F028
:1005B0000A490968B1FBF0F000F0B5FD48B9102C0C
:1005C00007D200222146501E00F028F800206C605F
:1005D00070BD012070BD0000080000201400002044
:1005E0000C4808B5816941F001018161816901F020
:1005F00001010091C16941F08051C161C06900F001
:10060000805000900448416821F0E06141F00071A1
:10061000416008BD0010024000000140F0B40E4BE4
:100620001B680C46C3F30223C3F10705042D00D950
:100630000425191D072901D2002300E0DB1E012635
:1006400006FA05F1491E214099409E40761E16404B
:100650003143F0BC01F050B80CED00E0064900F069
:10066000070208684FF6FF03184040EA0220034AD9
:1006700010430860704700000CED00E00000FA0530
:100680002DE9F0470F46050061D0434E306800F079
:100690000700B84209D2306820F0070038433060C4
:1006A000306800F00700B84251D128683B4C810700
:1006B00012D5400703D5606840F4E0606060287898
:1006C000000703D5606840F4605060606068A96806
:1006D00020F0F000084360602878C00728D06868E0
:1006E000012810D02168022810D0890700292EDAAD
:1006F000616821F0030101436160FFF731FF80462B
:1007000041F288390DE021688903EFE78901EDE7BF
:10071000FFF726FFA0EB0801494502D90320BDE8F9
:10072000F0876068696800F00C00B0EB810FEFD1D2
:10073000306800F00700B8420BD9306820F007009D
:1007400038433060306800F00700B84201D0012023
:10075000E5E72878400705D56068E96820F4E0609F
:10076000084360602878000706D56068296920F48E
:10077000605040EAC100606000F038F86168084AE3
:10078000C1F30311515CC84006490860064800687F
:10079000FFF706FF0020C2E70020024000100240E1
:1007A000761D0008140000200C00002004480549B4
:1007B00000684968044AC1F30221515CC84070478F
:1007C0001400002000100240861D0008044805495E
:1007D00000684968044AC1F3C221515CC8407047AF
:1007E0001400002000100240861D00080E4A5168C7
:1007F0000E4801F00C03042B11D0082B0FD10C482C
:10080000C1F38343C903C05C0AD55168084AC1F3E8
:100810004041921E515C054A5043B0FBF1F07047D5
:1008200004494843704700000010024000127A005B
:10083000661D000800093D002DE9F84F040070D046
:100840002078C04DC00749D06868C0F381000128F6
:1008500007D06868C0F38100022809D16868C00326
:1008600006D52868800339D560680028E7D035E0D0
:100870006068B0F5803F0BD010B1B0F5A02F11D05B
:10088000286820F480302860286820F4802002E066
:10089000286840F480302860606890B1FFF760FEFF
:1008A00006460AE0286840F480202860F0E700BF90
:1008B000FFF756FE801B642873D828688003F7D59D
:1008C0000CE0FFF74DFE064605E000BFFFF748FECF
:1008D000801B6428F0D828688003F7D420789A4ECB
:1008E00080074FF001094FF0000839D5686810F013
:1008F0000C0F07D06868C0F38100022809D168682E
:10090000C00306D42868800714D52069012808D1BF
:1009100010E02069B0B1C6F80090FFF721FE07464D
:1009200005E00AE1FFF71CFEC01B0228C4D82868B6
:100930008007F7D52868616920F0F80040EAC10017
:1009400028600DE0C6F80080FFF70AFE074604E0C5
:10095000FFF706FEC01B022823D828688007F7D4BB
:10096000207800072CD57948A169D9B1C0F800904A
:10097000FFF7F6FD074604E0FFF7F2FDC01B022873
:100980000FD8686A8007F7D571484FF4FA510068AC
:10099000B0FBF1F0009000BF0098411E0091FAD228
:1009A0000EE080E0C0F80080FFF7DAFD074604E0C3
:1009B000FFF7D6FDC01B022875D8686A8007F7D4F8
:1009C0002078400760D5E8690027C00008D4E869AE
:1009D00040F08050E861E869012700F08050009005
:1009E0005C480168C90513D40168834641F48071ED
:1009F0000160FFF7B5FD824606E000BFFFF7B0FDDE
:100A0000A0EB0A0064284ED8DBF80000C005F5D53D
:100A1000E06801280AD008B1052813D0286A20F020
:100A200001002862286A20F0040002E0286A40F0F1
:100A300001002862E06841F2883B98B1FFF790FD21
:100A400082460BE0286A40F004002862EEE700BF0F
:100A5000FFF786FDA0EB0A0159455AD8286A80079E
:100A6000F6D50CE0FFF77CFD824605E0FFF778FD48
:100A7000A0EB0A0159454CD8286A8007F6D41FB16B
:100A8000E86920F08050E861E06988B36968C1F3E3
:100A90008101022944D00228C6F8608004D0FFF703
:100AA0005FFD044638E034E0FFF75AFD074604E0F6
:100AB000FFF756FDC01B02282BD828688001F7D409
:100AC000206AB0F5803F05D16868A16820F4003045
:100AD00008436860D4E908010843696821F4741187
:100AE00008436860C6F86090FFF73AFD044606E0E8
:100AF00025E000BFFFF734FD001B022809D8286855
:100B00008001F7D51BE000BFFFF72AFD001B02287C
:100B100002D90320BDE8F88F28688001F4D40EE0E4
:100B20000128F7D06868226A00F48031914204D12C
:100B3000616A00F47010884201D00120EAE70020C9
:100B4000E8E70000001002400000424280044242F8
:100B5000140000200070004070B5040009D0606AE5
:100B6000002540B125616561A56294F8510040B14E
:100B70000CE0012070BD6068B0F5827FF4D0E561C3
:100B8000F2E784F85050204600F040F8022084F844
:100B900051002068016821F040010160A08821898E
:100BA00000F4827001F404410843A18901F400615A
:100BB0000843217C01F002010843217D01F001017D
:100BC0000843218B01F400710843217F01F03801B3
:100BD000084394F8201001F080010843218D01F4AE
:100BE0000051084321680860A069042101EA10400F
:100BF000216848602068C16921F40061C1616565B0
:100C0000012084F85100002070BD000030B585B08F
:100C100000240094019402940394006814498842CB
:100C200023D11448816941F480518161816901F4C3
:100C300080510491816941F00401816180690E4D08
:100C400000F004000490A0200090022001900320F6
:100C5000039069462846FFF78DFB4020CDE900044C
:100C6000694628460294FFF785FB05B030BD0000B9
:100C70000030014000100240000801402DE9F84F0B
:100C8000044690F851001D4616460F46012838D1FB
:100C900060684FF00408B0F5827F01D1A06830B3DE
:100CA000FFF75EFC8246002F75D0002E73D094F8BB
:100CB0005000012825D04FF0010984F8509084F8A5
:100CC00051804FF00008C4F85480A763A687E687D8
:100CD000C4F83080A4F83480A4F83680C4F840808A
:100CE000C4F84480A068B0F5004F0CD015E084F83B
:100CF0005180009313460A46204600F01CF9BDE8D7
:100D0000F88F0220FBE72068016821F040010160B4
:100D10002068016821F4804101602068016849066B
:100D200003D4016841F040010160E068C0B134E0E3
:100D300020688168C90709D0007BA16B0870A06B8F
:100D4000401CA063E08F401EE08709E0FFF708FC2D
:100D5000A0EB0A00A84202D3681C01D032E085B3A0
:100D6000E08F0028E4D11BE020688168C90709D022
:100D7000C068A16B0880A06B801CA063E08F401E40
:100D8000E0870AE0FFF7ECFBA0EB0A00A84203D3E0
:100D9000681C02D016E012E09DB1E08F0028E3D17C
:100DA00052462946204600F002FB08B1202060652B
:100DB00084F8519084F85080606D00289FD0012005
:100DC0009DE7FFE784F8519084F85080032096E770
:100DD0002DE9F84F984616468A460446FFF7C0FBB1
:100DE000814694F8510001281ED1BAF1000F73D04A
:100DF000002E71D094F85000012815D0012784F8F6
:100E00005070032084F8510000256565C4F830A0B7
:100E1000A686E686A563A587E58765642564A06840
:100E2000B0F5004F03D00CE00220BDE8F88F206839
:100E3000016821F0400101602068016841F48041AF
:100E4000016020680168490603D4016841F040014F
:100E50000160E068B0F5006F606803D048B3012E10
:100E600027D047E008B1012E1FD1206B21680088F0
:100E7000C86006E020688168890709D5216B098868
:100E8000C160206B801C2063E08E401EE0860CE079
:100E9000FFF766FBA0EB0901414503D3B8F1FF3F23
:100EA00003D035E0B8F1000F32D0E08E0028E1D158
:100EB00023E0206B21680078087306E020688168D1
:100EC00089070AD5216B09780173206B401C2063C8
:100ED000E08E401EE0860DE02BE0FFF741FBA0EB2B
:100EE0000901414503D3B8F1FF3F03D010E0B8F149
:100EF000000F0DD0E08E0028E0D14A464146204642
:100F000000F083FA08B120206065A06830B109E0E4
:100F100084F8517084F85050032086E72068C16837
:100F20008068009084F8517004F8505F6068002871
:100F3000F3D0012079E72DE9FF4F81B01D4693469C
:100F400004464FF001090E9EFFF70AFB074694F88E
:100F500051006168012806D0B1F5827F3CD1A168BB
:100F6000C9BB042838D10298002871D0BBF1000F0A
:100F7000FBD0002DF9D094F8500001282CD04FF070
:100F8000010A84F850A094F85100042802D00520EA
:100F900084F851004FF00008C4F85480C4F838B009
:100FA000E587A58702992163E586A586C4F8408078
:100FB000C4F8448020680168490603D4016841F000
:100FC00040010160E068B0F5006F606808D0F0B3E0
:100FD000012D49D081E0FFE7022005B0BDE8F08F88
:100FE00008B1012D39D1206B21680088C860206BC1
:100FF000801C2063E08E401EE0862EE02068816821
:1010000089070FD5E18E69B1B9F1010F0AD1216BC2
:101010000988C160206B801C2063E08E401EE08642
:101020004FF0000920688168C9070CD0E18F51B1E9
:10103000C068A16B0880A06B801CA063E08F401E7D
:10104000E0874FF00109FFF78BFAC01B01E00BE0CE
:1010500067E0B04201D3701C50D1E08E0028CDD1A2
:10106000E08F0028CAD13EE0206B21680078087329
:10107000206B401C2063E08E401EE0862DE020683F
:10108000816889070FD5E18E69B1B9F1010F0AD1E5
:10109000216B09780173206B401C2063E08E401E99
:1010A000E0864FF0000920688168C9070CD0E18F05
:1010B00051B1C068A16B0870A06B401CA063E08FA9
:1010C000401EE0874FF00109FFF74AFAC01BB0420B
:1010D00002D3701C01D011E086B1E08E0028CED181
:1010E000E08F0028CBD13A463146204600F08DF9FA
:1010F00050B12020606584F8508012E084F851A03F
:1011000084F85080032068E7A06818B92068C16897
:101110008068009084F851A084F85080606D0028A9
:10112000F1D0012059E710B5401EB0F1807F01D306
:10113000012010BD4FF0E02460610F21601700F026
:10114000DBFA0020A06107202061002010BD70B5EF
:10115000040004D094F84100002510B106E00120FD
:1011600070BD84F84050204600F024F8242084F814
:1011700041002068C16821F40051C160204600F0A0
:1011800015FA2068016921F49041016120684169E4
:1011900021F02A0141612068C16841F40051C16019
:1011A0006564202084F8410084F8420065630020D3
:1011B00070BD000030B585B0002400940194029405
:1011C000039400681449884224D11448816941F489
:1011D00080418161816901F480410491816941F01C
:1011E0000401816180690E4D00F0040004904FF409
:1011F0000070009002200190032003906946284669
:10120000FFF7B8F82815CDE900046946284602948E
:10121000FFF7B0F805B030BD0038014000100240C3
:10122000000801402DE9F843044690F84100984633
:1012300016460D46202802D00220BDE8F88385B16D
:101240007EB100206064212084F84100FFF788F916
:10125000A6848146E684A0682027B0F5805F02D08E
:1012600003E00120E9E7206910B12E4600250EE0D9
:1012700000260CE08021204600F0F4F9A8B9C6B1A0
:1012800016F8010B21684860E08C401EE084E08C79
:101290004B464FF00002CDF800800028EAD14FF015
:1012A0004001204600F0DEF940B184F8417003208F
:1012B000C3E735F8020BC0F30800E3E784F8417098
:1012C0000020BAE7FEE7000010B586B000200090CD
:1012D0000190029003901248816941F020018161E0
:1012E000816901F020010491816941F0040181616B
:1012F00080690C4C00F0040004900122102120466B
:10130000FFF728F910200121CDE900010320CDE9E4
:10131000021069462046FFF72DF806B010BD000008
:101320000010024000080140104810B50E4901604D
:101330004FF48271416000218160C1604FF40072FE
:101340000161C0E905121022C0E9072141628162F2
:101350000A21C162FFF700FC002803D0BDE810405D
:10136000FFF706B810BD0000003001401C0200204D
:101370000C4810B50A4901604FF4E1314160002189
:1013800081600C22C160C0E904128161C161FFF774
:10139000DEFE002803D0BDE81040FEF7E9BF10BD17
:1013A0000038014074020020FEE7FEE77047F8B500
:1013B000044640684FF48273984217D1A0684FF4F6
:1013C0008065B0F5004F01D0A8420FD120680668B3
:1013D00026F0400606606068984207D1A068A842DF
:1013E00004D100920B460022012103E000920B463B
:1013F00000228021204600F023F8002804D0606DF0
:1014000040F0200060650320F8BDF8B515460E4693
:101410000B46009204460122022100F011F840B967
:101420003346002280212046009500F009F800286C
:1014300004D0606D40F0200060650320F8BD00001E
:101440002DE9F8431E46914688460446089DFFF75D
:1014500087F8401B351AFFF783F8074625480068D0
:10146000C0F3CB30684338E0701C37D0FFF778F812
:10147000C01BA84203D215B1009860B32CE02068CD
:10148000416821F0E00141606068B0F5827F0BD1D6
:10149000A068B0F5004F02D0B0F5806F04D120688D
:1014A000016821F040010160A06AB0F5005F09D138
:1014B0002068016821F4005101602068016841F44E
:1014C00000510160012084F85100002084F8500090
:1014D0000320BDE8F8830025401E00902068816845
:1014E00038EA010004D000214945BDD10020F0E7D1
:1014F0000121F9E7140000207047FFF737B830B535
:101500008FB028216846FEF726FE14210AA8FEF7B0
:1015100022FE01210804CDE90010002402940225D6
:101520000491CDE907504FF4E01009906846FFF7A9
:1015300083F908B172B6FEE70F20CDE90A054FF432
:101540008060CDE90C4002210AA80E94FFF798F8BC
:10155000002801D072B6FEE70FB030BD70470168B9
:101560000C3151E8002F22F4907241E80023002B47
:10157000F5D10168143151E8002F22F0010241E851
:101580000023002BF5D1016B012909D101680C3131
:1015900051E8002F22F0100241E80023002BF5D182
:1015A000202180F8421000210163704770B5044685
:1015B00000680169E26821F4405111430161216929
:1015C000A0680843616908432168CA6841F20C6356
:1015D0009A430243CA6020684169A26921F44071BC
:1015E000114341611E492068884202D1FFF7EEF89D
:1015F00001E0FFF7DBF800EBC00101EB00126068CF
:1016000064218000B2FBF0F3B3FBF1F36FF0180636
:101610007343B2FBF0F5B2FBF0F605EB8305322322
:1016200003EB0515B5FBF1F5B6FBF1F605F0F0059A
:1016300005EB0615B2FBF0F6B2FBF0F0B0FBF1F0F3
:101640006FF01802504306EB800003EB0010B0FB74
:10165000F1F0216800F00F002844886070BD0000A0
:10166000003801402DE9F843984617460D460446D8
:10167000089E24E0701C22D0FEF772FFA0EB080049
:10168000B0421AD8CEB12068C168490717D5802D5D
:1016900015D0402D13D00168C94309070FD4016844
:1016A0000025406800902046FFF759FF082060643D
:1016B00084F840500120BDE8F8830320FBE7206850
:1016C000006835EA000004D00020B842D2D00020E3
:1016D000F1E70120F9E7FEE70FB4054B10B503A9C8
:1016E000044A029800F028F810BC5DF814FB0000D2
:1016F000911B0008180000200907090E002804DBD0
:1017000000F1E02080F80014704700F00F0000F1B5
:10171000E02080F8141D704702E008C8121F08C1BD
:10172000002AFAD170477047002001E001C1121F62
:10173000002AFBD1704700002DE9FF4F8DB00F4606
:101740000546002606E025280BD0DDE90F1290475C
:101750006D1C761C28780028F5D111B03046BDE804
:10176000F08F0024A246A1460122E94900E004438B
:1017700015F8013F203B02FA03F00842F7D1287820
:101780002A2810D06FF02F022878A0F13001092903
:1017900014D80AEB8A0102EB410144F0020400EB89
:1017A000010A6D1CF0E701CF5FEA000A03D544F49B
:1017B0000054CAF1000A44F002046D1C28782E2857
:1017C00017D115F8010F44F004042A280ED06FF049
:1017D0002F022878A0F1300109290AD809EB8901E4
:1017E00002EB410100EB01096D1CF2E757F8049B85
:1017F0006D1C28786C280FD006DC4C2817D0682880
:101800000DD06A2814D104E0742810D07A280FD1A2
:101810000DE044F400140AE044F4801401E044F4C0
:1018200040146978814202D104F580146D1C6D1C4E
:1018300028786E281ED00CDC632830D004DC002809
:101840008BD0582811D19FE0642867D069280CD12B
:1018500064E073282DD004DC6F2872D0702804D186
:1018600094E075286ED078286DD0DDE90F1290478E
:10187000761C4BE1C4F30250022806D0032809D09D
:10188000042801CF09D0066040E101CFF117C0E97B
:1018900000613BE101CF068038E1067036E117F8C0
:1018A000040B8DF8000000208DF80100EB460120AC
:1018B00003E057F804BB4FF0FF3061074FF0000121
:1018C00002D40DE008F10101884649450FDA804550
:1018D000F8DB1BF808100029F4D108E008F1010139
:1018E00088468142FADB1BF808100029F6D1DDE9B1
:1018F0000F23AAEB08008146214600F031F930445D
:1019000000EB080604E0DDE90F121BF8010B90471D
:10191000B8F10108F7D221464846F2E00A21C4F3A3
:1019200002524FF0000B0891022A04D001CFC117D8
:10193000032A09D00AE0FF1D27F00707F7E8020194
:1019400008E02CE01EE01FE000B2C117042A01D11C
:1019500040B2C117021E71F1000206DA0023D0EB7B
:10196000030063EB01012D2202E0220504D52B22A6
:101970008DF82420012203E0E20701D02022F7E7BE
:10198000904653E00A210BE0102109E010214FF0AE
:10199000000B44F004044FF00809089103E008210B
:1019A0004FF0000B0891C4F30252022A04D001CF79
:1019B0000021032A06D006E0FF1D27F00707F7E8FD
:1019C000020103E080B2042A00D1C0B24FF0000847
:1019D00022072BD52A78702A07D0DDF820C08CF09A
:1019E000100C5CEA0B0C05D00EE040228DF8242090
:1019F000012208E050EA010306D030238DF824309C
:101A00008DF8252002229046089B83F0080353EAB4
:101A10000B030BD150EA010201D1620706D5302237
:101A20008DF824204FF00108A9F101092A78582ADD
:101A300004D038A20B9208AA0A920BE03AA2F9E766
:101A40005B46089AFEF79FFB0B9B9B5C0A9A521E13
:101A50000A92137050EA0102F2D10A98ADEB00002D
:101A600000F1200B600702D524F4803401E04FF030
:101A70000109D94502DDA9EB0B0000E0002000EBD5
:101A80000B0141440890AAEB010AE00306D4DDE90A
:101A90000F232146504600F063F806444FF000093A
:101AA00008E009A911F80900DDE90F12904709F1D2
:101AB0000109761CC145F4DBE0030CD5DDE90F23F9
:101AC0002146504600F04CF8064404E0DDE90F12D0
:101AD00030209047761C0899481E08900029F5DCB4
:101AE00008E00A980A990078491C0A91DDE90F126A
:101AF0009047761CBBF10001ABF1010BF1DC2146F4
:101B00005046DDE90F2300F019F806446D1C21E66C
:101B100009280100303132333435363738396162C3
:101B20006364656600000000303132333435363787
:101B30003839414243444546000000002DE9F04158
:101B4000044600251E461746880404D405E039469D
:101B50002020B0476D1C641EF9D52846BDE8F081F1
:101B60002DE9F041044600251E469046C80301D5E4
:101B7000302700E02027880404D505E04146384698
:101B8000B0476D1C641EF9D52846BDE8F081000001
:101B900013B54FF0FF33012269460248FFF742FBBD
:101BA00000981CBD74020020FEF7E8FCFFF7A7FCBC
:101BB000FFF78AFBFFF7B8FBFFF7DAFB2DA0FFF773
:101BC0008BFDFEF75DFB3248FEF7AAFB304E307806
:101BD000EF2801D0012000E000207178162901D003
:101BE000012100E000212A4C08434FF0000501D0FC
:101BF00028A00EE02EA0FFF76FFD65606068315CE5
:101C000030A0FFF769FD6068401C60600228F5D3D2
:101C10001EA0FFF761FD4FF48076324600212B486D
:101C2000FEF74EFB002820D029A000BFFFF754FD8F
:101C30002EA0FFF751FD6560244D6068295C30A03F
:101C4000FFF74AFD6068401C6060FF28F5D92FA0AF
:101C5000FFF742FD1D493246A1F58070FEF786FA76
:101C600028B12CA0FFF738FDFEE732A0DEE736A052
:101C7000F8E700000D0A205350492D5732355178AE
:101C800078204578616D706C65200D0A0D0A0000A2
:101C900000000020736F6D657468696E672077724D
:101CA0006F6E6720696E205374657031200D0A00D5
:101CB00020573235517878204944206973203A20E2
:101CC0000000000030782530325820001C01002030
:101CD000736F6D657468696E672077726F6E6720C9
:101CE000696E2053746570340D0A000051535049D9
:101CF00020526561642044617461203A200D0A001D
:101D00003078253032582020000000000D0A0D0ADE
:101D100000000000205732355136344656205175A8
:101D2000616453504920546573742046616C736537
:101D30000D0A000020515350492052656164206F04
:101D40006B0D0A0D0A00000020573235513634461B
:101D50005620517561645350492054657374204F67
:101D60004B0D0A00010202030405060708090A0BCD
:101D70000C0D0E0F1010000000000000000001020A
:101D80000304060708090000000001020304000024
:101D9000B01D0008000000201C00000018170008FB
:101DA000CC1D00081C000020A40600002817000815
:101DB0000000000000000000010000001000000012
:0C1DC0000000000000127A00000000008B
:04000005080000ED02
:00000001FF
